:020000040800F2
:10000000680B0020450100081F0C0008C309000808
:100010001D0C00083B080008C11800080000000083
:1000200000000000000000000000000005120008B1
:100030003D08000800000000A50E0008C5130008D8
:100040005F0100085F0100085F0100085F01000810
:100050005F0100085F0100085F0100085F01000800
:100060005F0100085F0100085F0100085F010008F0
:100070005F0100085F0100085F0100085F010008E0
:100080005F0100085F0100085F0100085F010008D0
:100090005F0100085F0100085F0100085F010008C0
:1000A0005F0100085F0100085F0100085F010008B0
:1000B0005F0100085F0100085F0100085F010008A0
:1000C0005F0100085F0100085F0100085F01000890
:1000D0005F010008091700085F0100085F010008C0
:1000E0005F0100085F0100085F0100085F01000870
:1000F0005F0100085F0100085F0100085F01000860
:100100005F0100085F0100085F0100085F0100084F
:100110005F0100085F0100085F0100085F0100083F
:100120005F0100085F0100085F0100085F0100082F
:10013000DFF80CD000F044FB004800472D2E0008EB
:10014000680B00200648804706480047FEE7FEE7A8
:10015000FEE7FEE7FEE7FEE7FEE7FEE7FEE7FEE777
:10016000D51300083101000830B5044600200346CD
:1001700000E05B1C934203D2E05CCD5C401BF8D0F6
:1001800030BD30B480EA010202F0004530F0004298
:1001900021F0004013D090B1C30DD40DC2F316016D
:1001A000C0F31600E41A41F4000140F400027D346B
:1001B000914201D3641C00E04900002C02DA30BCFB
:1001C000002070474FF400000023914201D3891AA8
:1001D000034340084FEA4101F7D151B1914202D1A6
:1001E0004FF0004105E002D24FF0010101E06FF055
:1001F000010103EBC450284430BC00F035BA2DE9AE
:10020000FE4F804681EA0300C00F0C46009021F0AB
:10021000004123F00045B8EB0200A94105D2404659
:10022000214690461C460B46024623F000401043F0
:1002300047D0270DC7F30A00C3F30A510290401AB2
:10024000019040286BDAC3F3130040F4801B009840
:10025000924620B10023D2EB030A63EB0B0B01980B
:100260005946C0F14002504600F0CDF906460D4611
:1002700050465946019A00F0E5F910EB080061413B
:10028000002487EA115284EAE7731A4340D0009AA7
:1002900062B3019A012A4FEA075215DC001B61EB99
:1002A00002014FF0004202EA0752CDE90042001C71
:1002B00041F5801132462B4600F01CFA03B0BDE830
:1002C000F08F40462146F9E7001B61EB0201001C5C
:1002D00041F5801300185B412018A2F5001747EB89
:1002E000030140EAD570B6196D4111E06D084FEA7F
:1002F000360645EAC0754FEA0752001B61EB020162
:10030000001C41F5801149084FEA300000195141A5
:1003100032462B4603B0BDE8F04F00F0DCB9009840
:10032000012240000023D0EB020263EBE07300984F
:1003300021464FEAE074B8EB000061EB0401E9E705
:1003400083F000435BE781F0004158E72DE9FE4F61
:1003500081EA030404F0004421F0004100944FF0CE
:10036000000B23F0004350EA01045ED052EA03047C
:100370005BD0C3F30A54C1F30A552C44A4F2F334FE
:100380000194A0FB0254C1F3130141F48011C3F3A3
:10039000130343F4801301FB024400FB034E840A61
:1003A000970A44EA815447EA8357A4FB07680295F9
:1003B0008D0A05FB07854FEA932C04FB0C54270597
:1003C000029D4FEA065847EA1637B5EB08056EEB73
:1003D000070C870E920E47EA811742EA8312A7FBA9
:1003E0000201B6EB0B0164EB00042B0D43EA0C3366
:1003F0005E1844EB1C50DA465146E7FB0201C5F398
:1004000013044FEA0B3343EA14534FEA0432019CBE
:1004100043EA0603A4F10C040294009CCDE900B465
:1004200000F068F903B0BDE8F08F00200146F9E75D
:100430002DE9F04D81EA030404F0004B21F0004562
:1004400014464FF0000A23F0004150EA050220D084
:1004500054EA01021DD0C5F30A570246C5F313033F
:10046000C1F31300C1F30A5640F4801543F480131E
:10047000A7EB0608101BD64608F2FD3873EB050003
:1004800002D308F1010801E092185B41B8F1000FB6
:1004900003DA00200146BDE8F08D00204FF4801102
:1004A000064684460EE0171B73EB050705D3121BA7
:1004B00063EB050306434CEA010C49084FEA3000A0
:1004C00092185B4150EA0107EDD152EA030012D0C5
:1004D00082EA040083EA0501084305D0101BAB4102
:1004E00006D20122002306E000224FF0004302E082
:1004F0006FF0010253101AEB06004CEB085110EBA1
:100500000A0041EB0B01BDE8F04D00F0E4B8C10F6B
:1005100080EAE0700844CA079623002100F0ADB8D5
:1005200000F0004230F000400AD0C10D01F56071CA
:10053000C0F3160042EA0151C20840071143704758
:10054000002001467047000030B5041E71F1000420
:1005500004DB4FF00044404264EB0101141E73F1D0
:10056000000405DB1C464FF00043524263EB0403DA
:10057000994208BF904230BD30B50B46014600207D
:100580002022012409E021FA02F59D4205D303FA55
:1005900002F5491B04FA02F52844151EA2F10102D6
:1005A000F1DC30BD2DE9F05F0546002092469B4608
:1005B00088460646814640241BE028464146474679
:1005C000224600F02FF853465A46C01A914110D3E4
:1005D00011461846224600F016F82D1A67EB01085E
:1005E0004F4622460120002100F00DF817EB0009CC
:1005F0004E41201EA4F10104DFDC484631462A4664
:100600004346BDE8F09F202A04DB203A00FA02F1BD
:10061000002070479140C2F1200320FA03F31943F0
:1006200090407047202A04DB203A21FA02F0002192
:10063000704721FA02F3D040C2F1200291400843F2
:1006400019467047202A06DBCB17203A41FA02F000
:1006500043EAE07306E041FA02F3D040C2F120021F
:1006600091400843194670470029A8BF7047401CB5
:10067000490008BF20F00100704710B4B0FA80FCB8
:1006800000FA0CF050EA010404BF10BC704749B1F5
:10069000CCF1200421FA04F411FA0CF118BF012165
:1006A00021430843A3EB0C01CB1D4FEA00614FEA45
:1006B000102042BF002010BC704700EBC350104414
:1006C0000029A4BF10BC7047401C490008BF20F09F
:1006D000010010BC704710B5141E73F1000408DA55
:1006E000401C41F1000192185B411A4301D120F0F6
:1006F000010010BD2DE9F04D92469B4611B1B1FAB3
:1007000081F202E0B0FA80F220329046FFF77BFFE0
:1007100004460F4640EA0A0041EA0B0153465A4696
:10072000084313D0114653EA010019D0C8F1400222
:100730005046FFF777FF05460E465046594642465B
:10074000FFF761FF084305D0012004E02046394649
:10075000BDE8F08D0020054346EAE0762C433743A0
:100760000A986305E40AA0EB08000022FD0A44EAA7
:1007700047540A3002D500200146E9E70105101967
:100780006941DDE9084500196941BDE8F04DA2E77E
:10079000C1F30A52C1F3130140F2FF3341F4801157
:1007A0009A4202DA00200146704740F233439A42EF
:1007B000A2F2334202DC5242FFF734BFFFF723BFFD
:1007C000064C074D06E0E06840F0010394E807009E
:1007D00098471034AC42F6D3FFF7AEFCF03C00086B
:1007E000103D000870B58C1810F8015B15F0070378
:1007F00001D110F8013B2A1106D110F8012B03E0BA
:1008000010F8016B01F8016B5B1EF9D12B0705D4C1
:100810000023521E0DD401F8013BFAE710F8013B0A
:10082000CB1A921C03E013F8015B01F8015B521E26
:10083000F9D5A142D8D3002070BDFEE77047000073
:1008400038B501217D2000F047FB4FF6FF70ADF871
:1008500000000020124C8DF803006946204600F08D
:1008600029F869460F4800F025F869460E4800F05F
:1008700021F869460D4800F01DF869460C4800F063
:1008800019F80E20ADF8000010208DF803000320A9
:100890008DF802006946204600F00CF8002038BDB3
:1008A00000080140000C014000100140001401400C
:1008B00000180140F0B5CA78002502F00F03D206F7
:1008C00001D58A7813430A784FF00F0E12F0FF0F0C
:1008D0004FF001021CD004680F8802FA05F6374079
:1008E000B74211D14FEA850C0EFA0CF724EA07073C
:1008F00003FA0CF43C43CF78282F02D0482F02D0C3
:1009000002E0466100E006616D1C082DE4D304603E
:100910000C88FF2C1ED944685FF0000606F108071A
:1009200002FA07F50F882F40AF420FD14FEA860C2D
:100930000EFA0CF7BC4303FA0CF73C43CF78282F90
:1009400000D14561CF78482F00D10561761C082E73
:10095000E4D34460F0BD0000F0B5144C002801DA87
:10096000E36900E06368420D120185B2C0F30157EC
:100970009540C0F30346032F05D0C2020AD50322D7
:10098000B240934307E023F07062636823F0706322
:10099000636002E0AB4343F0706201B12A43002878
:1009A00001DAE261F0BD6260F0BD000000000140CC
:1009B00041617047016170470AB10161704741614F
:1009C0007047FEE7F8B54020ADF8000003240B4E59
:1009D0008DF8024010258DF8035069463046FFF728
:1009E00069FF8020ADF800008DF802408DF80350BB
:1009F00069463046FFF75EFFF8BD0000000C01407D
:100A0000094A00B54021116000F0CCF8064B802067
:100A10001B1F186000F0C6F8196000F0C3F81160E1
:100A20005DF804EB00F0BEB8140C014070B50E4C3C
:100A300008220021802020600B4E4025231D083E07
:100A40000CE04806010E1D6000F0ACF8256000F0D7
:100A5000A9F83068000601D541F00101521ED2B25A
:100A6000EFD21D60084670BD100C014070B50D4AF4
:100A70000821802540260346141F0DE000F092F85F
:100A8000180601D5256000E015605806030E00F039
:100A900089F8266000F086F8491EC9B21660EDD2CA
:100AA00070BD0000140C01400C4800B580210160AD
:100AB0004022026000F076F8084A083A1068074BB6
:100AC0001B1D196000F06EF81068000601D50020AB
:100AD00000BD196000F066F8012000BD100C014057
:100AE000094B00B54021196000F05CF880221A60C3
:100AF00000F058F8044B1B1F196000F053F81A60FF
:100B00005DF804EB00F04EB8140C014010B5002461
:100B10000CA000F0D7FEFFF755FFE1B2204600F031
:100B2000FBFB641C052CF8DB0024204600F0CAFB0C
:100B30000246214606A000F0C5FE641C052CF4DB2D
:100B400010BD000049324320746573740D0A000023
:100B500052656164202564202C64617461202564E1
:100B60000D0A00000E4900B540220A6000F01AF894
:100B70000B4B80201B1F186000F014F81A6000F067
:100B800011F807480C3800680A60000603D500F029
:100B900009F8002000BD00F005F8012000BD0000AC
:100BA000140C01401E20401E10F0FF00FBD17047C6
:100BB00070B5022404F1B000C0B2002100F034F995
:100BC0000021084600F030F90021102000F02CF937
:100BD00000250121002000F027F96D1CEDB2872DC2
:100BE000F7D3641CE4B2082CE4D370BD10B5032025
:100BF00002F006F9642001F03DFC032002F0EAF85F
:100C0000642001F037FC032002F0FAF8642001F0C0
:100C100031FCBDE81040032002F0DCB8FEE770476D
:100C200070B50F23C47801780122F4B1144C246804
:100C3000457804F4E064C4F5E064240AC4F10406D1
:100C4000E3408478B5401C402C4301F1E0212301AE
:100C500081F80034007800F01F018A4040098000CC
:100C600000F1E020C0F8002170BD01F01F008240BB
:100C70004809800000F1E020C0F8802170BD00002C
:100C80000CED00E00907090E002806DA00F00F005D
:100C900000F1E02080F8141D704700F1E02080F89A
:100CA0000014704770B5002404F1B000C0B20021F8
:100CB00000F0BAF80021084600F0B6F80021102034
:100CC00000F0B2F800250121002000F0ADF86D1C05
:100CD000EDB2872DF7D3641CE4B2082CE4D370BDC9
:100CE00038B50121082000F0F7F84FF47440ADF852
:100CF000000010208DF803000320184C8DF802002E
:100D000069462046FFF7D6FD4FF43C412046FFF7E9
:100D100051FE4FF4804529462046FFF74BFE6420E4
:100D200001F0A8FB29462046FFF742FEC82001F04B
:100D3000A1FB29462046FFF73DFE094D0024002176
:100D4000285D00F071F8641CE4B21B2CF7D3FFF7A8
:100D5000A9FF0021AF2000F067F838BD000C01406A
:100D60001803002010B50446B031C8B2002100F0CD
:100D70005BF8102040EA1410002100F055F804F050
:100D80000F00BDE8104040F00100002100F04CB819
:100D90002DE9F041203A00240D46D7B27F2802D930
:100DA00000208D1CEDB2801CC0B280462946FFF7A2
:100DB000D9FF0F4E04EB07100121305C00F034F82E
:100DC000641CE4B2082CF5D36D1CE9B24046FFF771
:100DD000C9FF002404EB071030440121007A00F021
:100DE00023F8641CE4B2082CF4D3BDE8F0810000C1
:100DF0003C3500082DE9F04117460E460446002513
:100E00000CE031462046FFF7C3FF0834E4B2782CEB
:100E100002D90024B61CF6B26D1CEDB27A5D002A30
:100E2000EFD1BDE8F08100002DE9F0471C4D0646EA
:100E30004FF4806A00295146284602D0FFF7BAFDD8
:100E400001E0FFF7B5FD4FF4805841462846FFF713
:100E5000AFFD00244FF400494FF4005739462846AF
:100E6000FFF7A6FD30064946284602D5FFF7A2FD4A
:100E700001E0FFF79DFD39462846FFF79BFD700610
:100E8000641C060EE4B2082CE8D341462846FFF75E
:100E900091FD51462846BDE8F047FFF78BBD0000A5
:100EA000000C014070470000044A0029D16901D0BC
:100EB000014300E08143D16170470000001002400F
:100EC000044A0029116901D0014300E08143116106
:100ED0007047000000100240044A0029916901D0C7
:100EE000014300E08143916170470000001002401F
:100EF000044A0029D16801D0014300E08143D16058
:100F0000704700000010024030B5224A5168224B61
:100F100011F00C0103D0042903D0082903D0036089
:100F200016E01E4913E05168536801F470114FF048
:100F3000020413F4803F04EB914104D053689B03F7
:100F400003D5154B02E0164B00E0144B59430160EA
:100F500051680F2303EA1111124B5C5C0168E140F8
:100F600041605468072505EA14241C5D21FA04F445
:100F70008460546805EAD4241B5DD940C16052687E
:100F8000032303EA9232074B1B1F9A5CB1FBF2F179
:100F9000016130BD0010024000127A000024F4000C
:100FA00000093D00E1000020034A118821F03801CA
:100FB0000143118070470000003001400029018882
:100FC00002D041F0400101E021F040010180704772
:100FD000F0B5294E87B0304600F052F80021ADF848
:100FE00000104FF48270ADF80200ADF808107015D3
:100FF000ADF80A001024ADF80410ADF80C4007203D
:10100000ADF80610ADF80E10ADF810006946304688
:1010100000F067F8A020ADF8140018208DF8170034
:10102000164F03258DF8165005A93846FFF742FCE8
:101030004020ADF8140048208DF8170005A9384667
:10104000FFF738FCADF814408DF817408DF81650B6
:1010500005A93846FFF72EFC0021304600F05DF868
:1010600001213046FFF7AAFF10213846FFF7A2FC06
:1010700007B00020F0BD0000003001400008014032
:10108000114910B588420AD1841401212046FFF786
:101090002FFF2046BDE810400021FFF729BF0B4974
:1010A000884202D10121041404E0094988420AD18E
:1010B0000121C4132046FFF703FF2046BDE810407E
:1010C0000021FFF7FDBE10BD003001400038004098
:1010D000003C00400246002012890A4200D0012054
:1010E000704730B502884C8802F441530A88CD8895
:1010F00022438C882C4322430C8922434C8922436F
:101100008C892243CC8922431A430280828B22F4A9
:1011100000628283098A018230BD0029818802D061
:1011200041F0040101E021F00401818070470000DA
:10113000F8B50E46044625492448083150F82400E5
:1011400051F82410084340F001000121FFF7C4FECC
:101150001E4808389CB350F824000121FFF7A4FE74
:1011600018208DF8030019486946183830F8140023
:10117000ADF8000003208DF80200154850F8240057
:10118000FFF798FB04208DF80300104869461438D7
:1011900030F81400ADF800000D48083050F8240075
:1011A000FFF788FB0A4D3146083D55F8240000F052
:1011B0002DFB55F82400012100F0DFFAF8BDFFE710
:1011C00000680121FFF788FECAE70000AC34000880
:1011D000100100200349044A31F8101052F8200091
:1011E000416170479C340008200100200349044AF3
:1011F00031F8101052F82000016170479C3400084B
:1012000020010020704700000020034902460A54D4
:10121000401C0228FBDB7047090000200CB50021B0
:10122000264801910091026842F4803202604FF436
:10123000A063026802F400320092019A521C0192EB
:10124000009A12B9019A9A42F3D10268920333D5F7
:10125000012100911A490A6842F010020A600A68E6
:1012600022F003020A600A6842F002020A60416842
:10127000416041684160416841F48061416041687A
:1012800021F47C114160416841F4F811416001682A
:1012900041F08071016001688901FCD5416821F04D
:1012A00003014160416841F0020141604168C1F3BE
:1012B00081010229FAD10CBD00910CBD0010024041
:1012C0000020024030B50546FFF7EEFB00281CD099
:1012D000104C2078FFF7CAFBFFF744FCB0B1E8B22E
:1012E000FFF7C4FBFFF73EFCFFF7DEFB2078401C56
:1012F000C0B2FFF7BBFBFFF735FCFFF797FB0446D7
:10130000FFF77EFBFFF7ECFB204630BDFFF7E8FB65
:10131000002030BD3303002030B50D460446FFF7F2
:10132000C3FB002822D012480078FFF79FFBFFF78D
:1013300019FCB8B1E0B2FFF799FBFFF713FC2846A0
:10134000FFF794FBFFF70EFCFFF7CAFB01F0A1F8D3
:1013500001F09FF801F09DF801F09BF8BDE83040E6
:1013600001F097B8BDE83040FFF7BABB30BD0000D0
:101370003303002001484078704700000900002036
:1013800070B50F484FF47A710068B0FBF1F0B0F11E
:10139000807F14D220F07F404FF0E024401E606137
:1013A00065170F212846FFF76DFC0020A06107207C
:1013B000206105212846FFF765FC002070BDFEE78F
:1013C000F400002002480168491C016070470000D9
:1013D000000000200F4810B5016841F001010160D4
:1013E00041680D4A1140416001680C4A114001609A
:1013F000016821F480210160416821F4FE0141600F
:101400004FF41F018160FFF709FF05494FF00060AD
:10141000086010BD001002400000FFF8FFFFF6FE5C
:1014200008ED00E02DE9FC5FDFF838B200268E4FB2
:101430004FF00F0AB146ABF14208962001F05DFB78
:1014400040F68C2001F070FB98F800108BF8021029
:1014500044468BF803A0002282490C2001F035FCA1
:1014600000210C2001F042FC022001F08FFB002043
:1014700001F0BAFA00210F2001F06DFA38426060E5
:10148000F8D002217948FFF795FAA088A0464004D9
:101490007DD54FF4814200210F2001F0E8FB0021AF
:1014A000102001F058FA00F07F01182903D800221B
:1014B0006F4801F084FA6E48C1780F2968D16949F4
:1014C00080F8039080F802900A220C31FEF74CFE5F
:1014D00000287DD100252C46684601F07FFA0420C3
:1014E0006A46240244EA15642B02155C1D43401E23
:1014F000F7D5C8E9045400252C46104601F068FAD7
:1015000004206946240244EA15642A020D5C15434E
:10151000401EF7D54FF02F60C8E90654281844F153
:101520000001040A44EA0164204601F085FA24F02F
:101530000100010E0202C8E908214A48D8E9042343
:101540004C46253001F024FC4648D8E906232930D2
:1015500001F01EFC4348D8E908232D3001F018FCA7
:10156000404898F800101B300022817080F803A0DA
:101570000146182001F0A9FB0021182001F0B6FB5C
:10158000032001F003FB454600210F2001E057E056
:1015900060E001F0E0F938426860F5D0A8884004C6
:1015A0004ED54FF4814200210F2001F060FB002155
:1015B000102001F0D0F900F07F01182903D8002293
:1015C0002B4801F0FCF92A4DE8780F2842D100E0C1
:1015D00031E02449EC70A146AC700A220F3928464C
:1015E000FEF7C2FD38BBA87A4FF47A714843E97A16
:1015F00001EB810100EB4101287B603505F10C0412
:1016000055F82020114445F8201054F82010491CAA
:1016100044F820105FF0000054F8201005290BDB7F
:1016200000F03CFF0020494644F8201045F8201007
:10163000401C0328F8DB08E0401C0328ECDB04E036
:101640000C4A00210F2001F012FB98F80010491CF1
:1016500088F80010761CF6B2032EFFF4EEAEBDE85B
:10166000FC9F00004A00002000D027240008014011
:10167000B00300200090272410B5114C8021204693
:1016800000F085F800281AD00E4A50881188884248
:1016900015D051880C480844491C51800178508865
:1016A000FF2801D900205080204600F005F920468F
:1016B000BDE81040012240F2277100F08EB810BD45
:1016C000003801405001002028040020F0B400221E
:1016D0000B4C0C4D16460DE0875C238805EB030C84
:1016E0005B1C23808CF800702388FF2B00D9268098
:1016F000521C92B28A42EFD3F0BCFFF7BDBF00008C
:10170000500100202804002070B5144D40F22774C9
:101710002146284600F042F800281ED0104A508882
:10172000118888420ED050880E490144401C5080D8
:1017300009785088FF2801D900205080284600F001
:10174000BBF804E000222146284600F046F8214676
:101750002846BDE8704000F00AB870BD003801406E
:101760005001002028040020C943018070470A0A64
:1017700001219140C943018070470029818902D02D
:1017800041F4005101E021F400518181704702468B
:10179000002012880A4200D00120704730B501F0C5
:1017A0001F0201240025C1F3421304FA02F2012BA7
:1017B0000FD0022B0FD0838A4FEA112100881342E9
:1017C00004FA01F400EA040001D000B10125284622
:1017D00030BD8389F0E7038AEEE710B5C1F3421309
:1017E00001F01F040121A140012B07D0022B07D0DB
:1017F0001430002A026805D00A4304E00C30F8E7F0
:101800001030F6E78A43026010BD000030B5044690
:10181000008A85B00D464CF6FF710840E988014307
:101820002182A1894EF6F3100140A8882A8910432D
:101830006A890A431043A081A08A4FF6FF410840FD
:10184000A9890143A1826846FFF75EFB19488442DB
:1018500001D1039800E00298A189090400EBC001BE
:1018600001EB0010296801D5490000E08900B0FBB8
:10187000F1F06422B0FBF2F109010B096FF01805D9
:101880006B4300EB8300A3891D044FF0320306D5A0
:1018900003EBC000B0FBF2F000F0070005E003EB43
:1018A0000010B0FBF2F000F00F000843208105B0FB
:1018B00030BD000000380140C1F30801818070474D
:1018C000FEE700000FB4054B10B503A9044A0298C7
:1018D00000F0A4F910BC5DF814FB0000A92D00086D
:1018E000340300200FB4084B10B504A902AA0398D2
:1018F00000F094F9044602A9002000F026FD2046DD
:1019000010BC5DF814FB00004B23000802E008C87F
:10191000121F08C1002AFAD170477047002001E069
:1019200001C1121F002AFBD1704738B504466D2053
:101930008DF800006B46012240F606012E2001F0D2
:10194000A5F941F6060114B140F2076201E041F247
:1019500007622E2001F07EF938BD38B504466B468B
:1019600002220021362001F00DF80E2C2CD2DFE8E7
:1019700004F00F07152B2B2B2B1D392B2B44494E15
:1019800000208DF800009DF8010000F0FE0019E035
:101990009DF8000000F0FC00401C04E09DF80000F1
:1019A00000F0FC00801C8DF800000DE09DF80000A8
:1019B00000F0B30040F048008DF800009DF80100F1
:1019C00040F080008DF801006B4601220021362096
:1019D00001F05CF90122114636200DF1010301F0FE
:1019E00055F938BD9DF8000000F0B3008DF80000F7
:1019F0009DF8010000F07F00E4E79DF8010040F051
:101A00000200DFE79DF8010000F0FD00DAE79DF835
:101A1000000000F0CF0040F02000C4E708B503202C
:101A20008DF8010001208DF800006B460222002194
:101A3000362001F02BF94FF4004206212D2001F051
:101A400009F9012000F016FD0120FFF786FF08BD0F
:101A500008B5010A8DF801108DF800006B460222CE
:101A600004212D2001F012F903208DF800006B46AF
:101A7000012206212D2001F009F900208DF8000037
:101A80006B46012206212D2001F000F90A212D20AC
:101A900000F061FF08BD00002DE9FF5F82B000216A
:101AA000DDE90430020DDDF840B0034318D044F600
:101AB0001050A2F2FF3242431514119801281FD092
:101AC000A5EB0B00401C5FEA000A4FF000064E4FEA
:101AD000DFF83891B046504615D5CAF1000413E03E
:101AE000119801244AA3012801D16FEA0B01029841
:101AF000119AC0E90031C0E9024206B0BDE8F09F8A
:101B0000CBF10000DFE704460021404A491842EBD0
:101B10000450CDE9001012E0E00707D032463B4602
:101B200040464946FEF712FC8046894632463B460F
:101B300010461946FEF70AFC06460F466410002CB4
:101B4000EAD1DDE90401DDE90023BAF1000F06DA8C
:101B5000FEF7FCFB42464B46FEF7F8FB05E0FEF7BE
:101B600067FC42464B46FEF763FC04460E460022E5
:101B7000284BFEF7E9FC03D84FF0FF30014607E0A1
:101B80000022254B20463146FEF739FBFEF700FECA
:101B9000102409E0002C0ADB0A220023FEF702FDD4
:101BA000039B30321A55641E50EA0102F2D1641CC4
:101BB000039AC4F111031444119A012A03D001229B
:101BC00008430DD10AE0084304D000204FF0110B68
:101BD000119072E7A3EB0B056D1E0DE05B4504DD74
:101BE0004FF0000205F1010504E003DA4FF00002B6
:101BF000A5F10105002AECD002981199C0E9023143
:101C0000C0E9004579E70000000014400000F03F03
:101C1000300000000000F0430000E03F2DE9FF4FDE
:101C200095B09B468946064600250FE2252877D1C8
:101C300000242746F84A0121059400E0044316F8E1
:101C4000013F203B01FA03F01042F7D130782A28F7
:101C500011D06FF02F033078A0F13002092A16D886
:101C6000059A44F0020402EB820203EB42021044A4
:101C7000761C0590EFE759F8042B0592002A03DA49
:101C8000504244F40054059044F00204761C30782D
:101C90002E2816D116F8010F44F004042A280DD07E
:101CA0006FF02F023078A0F13003092B09D807EB31
:101CB000870302EB4303C718761CF3E759F8047B4C
:101CC000761C30786C280FD006DC4C2817D068289A
:101CD0000DD06A2814D104E0742810D07A280FD1CE
:101CE0000DE044F400140AE044F4801401E044F4EC
:101CF00040147278824202D104F58014761C761C5E
:101D0000307866280BD013DC582877D009DC0028FF
:101D100075D04528F6D04628F4D047281AD19DE141
:101D200018E0632835D0642879D0652812D195E170
:101D3000702873D008DC6728F1D069286FD06E282E
:101D40000DD06F2806D1B5E073282CD0752875D03A
:101D5000782874D05A46179990476D1C75E1C4F3E2
:101D60000250022809D003280DD0D9F80010042809
:101D70000DD00D6009F1040967E1D9F80010EA17E8
:101D8000C1E90052F6E7D9F800100D80F2E70D70B6
:101D9000F0E719F8041B8DF8001000208DF8010001
:101DA000EA46012003E059F804AB4FF0FF30610729
:101DB0004FF0000102D40DE008F101018846B9425C
:101DC0000FDA8045F8DB1AF808100029F4D108E092
:101DD00008F1010188468142FADB1AF8081000294F
:101DE000F6D105985B46A0EB080721463846179ABE
:101DF00000F094FA284400EB080507E04DE029E1E3
:101E00000DE01AF8010B5A4617999047B8F10108EE
:101E1000F7D25B4621463846179A13E142E00A2280
:101E20000092C4F302524FF0000A022A08D059F877
:101E300004CB032A4FEAEC710AD00DE029E02AE036
:101E400009F1070121F00702F2E802C1914609E019
:101E50000FFA8CFC4FEAEC71042A03D14FFA8CFC88
:101E60004FEAEC71002907DA0A460021DCF1000C88
:101E700061EB02012D2202E0220504D52B228DF810
:101E80000420012203E0E20701D02022F7E7904678
:101E900059E00A2102E010220DE010214FF0000A63
:101EA00000910BE010224FF0000A44F004040827D0
:101EB000009203E008224FF0000A0092C4F302529D
:101EC000022A05D059F804CB0021032A08D009E0E2
:101ED00009F1070121F00702F2E802C1914605E08D
:101EE0001FFA8CFC042A01D10CF0FF0C4FF0000803
:101EF000220728D5702806D0009B83F0100353EAF0
:101F00000A0305D00EE040228DF80420012208E0EB
:101F10005CEA010206D030228DF804208DF805001D
:101F200002229046009B83F0080353EA0A030AD179
:101F30005CEA010201D1620705D530228DF8042048
:101F40004FF001087F1E582804D034A003900EA83B
:101F500002900DE036A0F9E753466046009AFEF77E
:101F600021FB84460398825C0298401E0290027016
:101F70005CEA0100F0D1029806A9081A00F1200AD3
:101F8000600702D524F4803400E00127574502DDC4
:101F9000A7EB0A0000E0002000EB0A010090059882
:101FA0004144401A0590E00306D45B462146179A47
:101FB000059800F0B3F90544002706E001A85A4649
:101FC000C05D179990476D1C7F1C4745F6DBE00309
:101FD0000CD55B462146179A059800F09FF90544F9
:101FE00004E030205A46179990476D1C0099481E0E
:101FF00000900029F5DC08E0029802995A46007822
:10200000491C0291179990476D1CBAF10001AAF181
:10201000010AF1DC65E100000928010030313233AA
:102020003435363738396162636465660000000014
:1020300030313233343536373839414243444546FE
:102040000000000000F058F90544761C30780028A4
:102050007FF4ECAD19B02846BDE8F08F620700D4DC
:10206000062709F1070222F0070CFCE80223E146EB
:1020700003F000485FEA080C02D00FF2702C0DE06C
:102080005FEA045C02D50FF2682C07E05FEAC47CCB
:1020900002D00FF2602C01E0AFF2700C4FF0FF386D
:1020A00023F00043CDF850C065280CD006DC45284D
:1020B00009D046281DD047283DD13DE0662818D0DC
:1020C00067287ED138E00021112F01DB112000E0CC
:1020D000781CCDE9000106A90EA8FFF7DDFCDDE9BB
:1020E0000F010E9A03910021009207F1010A049159
:1020F0004DE04FF000400097CDE9011006A90EA871
:10210000FFF7CAFCDDE90F0203920E9B1199002232
:10211000DDF80CA00093049211B9791C00EB010AC0
:10212000B7EB0A0004D4C0F1FF3007F1010A0490B4
:10213000AAEB0700019044E0012F00DA01270021FB
:10214000112F01DD112000E03846CDE9000106A97C
:102150000EA8FFF7A1FCDDE90F010E9A0391002103
:1021600004910092BA4621070CD40399514500DA34
:102170008A46BAF1010F05DD009AAAF10101515C0E
:10218000302908D0B84202DA10F1040F06DA012132
:10219000CDE9011015E0AAF10101E9E7002805DC0D
:1021A000049901440491AAEB000102E0411C51454D
:1021B00000DD8A460499401A401C01904FF000400F
:1021C0000290200704D40198504501DBCDF804802B
:1021D00000208DF84F0002980DF14F07B0F1004F2D
:1021E00025D02B200E9002984FF0020800280CDA20
:1021F000404202902D200E9007E00A210298FEF73F
:10220000BBF93031029007F8011DB8F10001A8F1C7
:102210000108F2DC02980028EFD1791E0E980870B0
:10222000307800F0200040F0450007F8020D12A8B9
:10223000C01B00F107081498007800B1012000EBE2
:102240000A01019801EBE07105984144401A401ED3
:102250000590E00306D45B462146179A059800F0E6
:102260005DF805441498007818B15A4617999047BC
:102270006D1CE00324D55B462146179A059800F0B3
:102280004DF805441CE00498002807DBDDE9030154
:10229000884203DD0098405C179901E017993020CF
:1022A0005A469047049805F10105401C0490019896
:1022B000401E019004D12E205A46179990476D1C5C
:1022C000BAF10001AAF1010ADDDC05E017F8010B03
:1022D0005A46179990476D1CB8F10001A8F1010802
:1022E000F4DC5B462146179A0598ABE62D0000000A
:1022F0002B000000200000002DE9F04104460025DD
:102300001E461746880404D405E039462020B0470D
:102310006D1C641EF9D52846BDE8F0812DE9F04119
:10232000044600251E469046C80301D5302700E02C
:102330002027880404D505E041463846B0476D1C87
:10234000641EF9D52846BDE8F0810A68531C0B606D
:1023500010707047F0B505464FF6FF7041F2210648
:102360000022044610E0AB5C80EA0320002307044F
:1023700003D586EA400080B201E004EA40005B1C1D
:10238000DBB2082BF3D3521C8A42ECD3F0BD70B5FC
:1023900005460020072403460EE0EA5C5040002278
:1023A000060602D584EA400000E04000521CD2B28A
:1023B000C0B2082AF4D35B1C8B42EED370BD000080
:1023C0002DE9F0412A4E01236D24F37233460F2587
:1023D0005C7334467223A3730223E3732346753C74
:1023E0001D743746A3897B741B0ABB740A2390FBB8
:1023F000F3F7B4468CF8137090FBF3F73F0A8CF8B0
:10240000147091FBF3F791FBF3F18CF815703746DC
:10241000090AB97592FBF3F1F97592FBF3F13246B3
:10242000090A117690FBF3F190FBF3F05176000A64
:10243000907610460D21C37601771146102008735F
:10244000F57000221F2000F040FC00211F2000F04A
:102450004DFC002000F09AFB00210F2000F07BFAD9
:102460000006F9D5E068401CE060BDE8F08100009E
:102470007D00002010B5044600F008FF04EB0004C6
:1024800000F004FF001B0028FADD10BD704700209B
:10249000704741F28830401EFDD170472DE9F0476A
:1024A000374E86B00024A6F10C0500BF56F8240074
:1024B000002808DD55F8241091FBF0F0214600F0CB
:1024C0003BFC45F82400641C032CEFDB95E8070077
:1024D000FFF776FF2B488168012903D10021816035
:1024E000FEF766FB00273068DFF89C804FF0010A9A
:1024F0004FF002093C4600281ADD2868FEF707F86D
:1025000047464146FDF73DFEFEF70AF802460B46F8
:102510001EA16846FFF7E6F96A4602210020FEF791
:1025200069FC2868FDF7F3FF3946FDF72AFE0746E8
:10253000706800281ADD6868FDF7E9FF44464146E7
:10254000FDF71FFEFDF7ECFF02460B4612A16846A1
:10255000FFF7C8F96A4604210020FEF74BFC6868C3
:10256000FDF7D5FF2146FDF70CFE044623463A460B
:102570004946504600F0F8FE06B0BDE8F08700007E
:102580001C0400200800002000007A44616E303AEC
:1025900025332E32666D0000616E313A25332E32BE
:1025A000666D00002DE9F84F0446057840797849BA
:1025B0004FF00009C84631F8107061787548491E1F
:1025C000CEB20163042D75D0072D73D000218A4649
:1025D000217801736F49E2798969002A6CD021F46E
:1025E00080018161217A4173217A4FF440338269FD
:1025F00003EA01410A43834682610021042000F07E
:1026000036FB3A4642F604012E2000F023FB30460A
:10261000FFF78BF9604F61490522785D00EB800080
:10262000431807212B2000F031FB5D49012201EB0B
:102630000A030B21282000F029FB785D594951F845
:1026400020200C21282000F012FBE079564901EBF4
:102650008000A17930F811200221272000F0FAFA39
:102660005248042130F81620272000F0F3FAE079D0
:1026700038B3A07804282AD028208DF80000202222
:102680000621272000F0E6FA6B46012226212720AA
:1026900000F0FCFA4648E17800EB061050F82120E3
:1026A0000821272000F0E3FAB4F80900A0B117E0F0
:1026B00000E001E001218AE741F48001FF08816127
:1026C00090E764220621272000F0C4FAE2E71020F8
:1026D0008DF800000246D3E741F24100A4F809005A
:1026E000B4F809202021272000F0B4FA314F0C2142
:1026F00023203A6800F0BBFA07EB460004218288E9
:10270000232000F0A7FAA07958B1E0792A490122E4
:1027100043180021212000F0B9FA4FF003094FF0CF
:10272000010805F00F00290740EA116061784FF4B5
:10273000402202EA81410843920002EA095108431B
:102740004FF4003202EA4841084321794FF0F86221
:1027500002EA81510843617940EAC16200211F20E9
:1027600000F085FAA07861784FF400430843020432
:10277000CBF81020E179082043EA41310A430021D7
:10278000CBF8102000F073FA0020BDE8F88F0000AD
:10279000A83B0008280500202C3B00084C3B000803
:1027A0006A3B0008343B0008783B0008843B000883
:1027B000883B00086C3B0008743B000810B50446D9
:1027C0000421362000F0C7F814B140F4006201E0A3
:1027D00020F400620421BDE81040362000F047BA22
:1027E00038B540208DF8000000210E2000F0B3F82D
:1027F0000446FFF74CFE0546002211460E2000F06D
:1028000036FA6B46012200210D2000F03FFA0A4AF9
:1028100000210F2000F02BFA00F002FA22460021DE
:102820000E2000F024FA2846FFF730FE034900206E
:1028300081F82C0038BD0000F8FF2724280500206F
:102840007CB50546374C04208DF8000000216175E9
:10285000216384F8251084F82C10A1836163A1639F
:1028600000F08CF83049206088420BD02F4C0221B8
:102870002046FEF79DF804212046FEF799F84FF018
:10288000FF307CBD0020FFF768F86B460122002175
:10289000242000F0FBF91E20FFF7DAF886B2300A98
:1028A000A0730420FFF7D4F810F0FF0F0CD0022023
:1028B0008DF8040001AB012212212D2000F0E6F971
:1028C000A08B40F48050A0830620FFF7C1F8606021
:1028D0000720FFF7BDF8A06016F01F00207501D19A
:1028E00010202075C0B200F00FFAE80706D0FFF7FD
:1028F00095F8A08B40F40060A08309E00521362004
:1029000000F016F820F400720521362000F0A2F93C
:102910000120FFF722F80021042000F01CF8A0613C
:1029200000207CBD280500203001CADE00080140DF
:1029300038B54FF6FF7489B280B26B46022200F0C0
:1029400021F830B99DF800009DF8011000EB01203E
:1029500084B2204638BD38B54FF0FF3489B280B21A
:102960006B46042200F00EF830B903216846425C41
:10297000491E02EB0424FAD5204638BD0021084642
:10298000FFF7E9BF08B551B140F040008DF80000F5
:10299000C8B27F2907D88DF8010002200BE08DF81E
:1029A0000000012007E040F080008DF80100C80918
:1029B0008DF802000320694600F06EFC08BD30B4BB
:1029C00014460A462146034630BC1120FFF7DABF01
:1029D0000346052200211520FFF7D4BF0346052238
:1029E00000211720FFF7CEBF38B5054600208DF82F
:1029F000000000F015F94FF4807422460DB14FF439
:102A0000407200210D2000F025F99DB16B46012296
:102A100003210F20FFF7B6FF9DF80000000709D53E
:102A2000FFF7DEFE224600210D2000F013F94FF0E3
:102A3000FF3038BD002038BD024601210A2000F0D9
:102A400016B938B50446C0076B464FF002024FF086
:102A500000014FF026002DD0FFF794FF9DF80100F4
:102A6000012220F03C0040F014008DF801001146D6
:102A700026200DF1010300F009F96B460122022125
:102A80003620FFF77FFF9DF800006B4640F0840082
:102A90008DF8000001220221362000F0F7F8102006
:102AA0008DF8000001208DF80100022228216B46DC
:102AB00036200BE0FFF766FF9DF801006B4620F023
:102AC00014008DF8010002220021262000F0DEF81B
:102AD000A00711D50F208DF800006B4601222A2196
:102AE000362000F0D3F800208DF800006B4601225C
:102AF0002A21362000F0CAF838BD10B5044600215E
:102B00001A20FFF728FFC4F313026FF313000243E8
:102B10000021BDE810401A2000F0A9B8024641F695
:102B200004012E2000F096B838B505466B46012208
:102B300003210420FFF726FF104C75B12A4600211F
:102B40000C2000F087F89DF8000040F010008DF890
:102B50000000A06940F0805008E09DF8000020F0DF
:102B600010008DF80000A06920F08050A0616B4635
:102B700001220321042000F089F838BD2805002037
:102B800002460021182000F065B80000F8B50024C6
:102B90000546224F26468DF8004080070BD5802041
:102BA0008DF800006B46012200210D2000F06EF828
:102BB000012087F82C00E8079DF8000021D040F0A4
:102BC00006008DF800006B46012200210D2000F068
:102BD0005DF803210F20FFF7ABFE10F4816F1AD0D0
:102BE00040208DF800006B46012200210D2000F0EE
:102BF0004DF80020FFF7E2FD87F82C604FF0FF341E
:102C000009E040F002008DF800006B46012200212F
:102C10000D2000F03BF82046F8BD000028050020FC
:102C20001CB56B46012203210F20FFF7ABFE9DF878
:102C3000000000F0800100F04000B1EB400F08D030
:102C400001208DF80400024601AB03210D2000F0A5
:102C50001DF81CBD08B589B28DF80020120A8DF848
:102C6000012080B26B46022200F010F808BD38B592
:102C700000236C46E254120A5B1C042BFADB89B277
:102C800080B22346042200F001F838BD08B551B1E6
:102C900040F0C0008DF80000C8B27F2909D88DF837
:102CA000010002200DE040F080008DF800000120BE
:102CB00007E040F080008DF80100C8098DF802009F
:102CC0000320694600F0B4FB08BD10B51446024469
:102CD000B2F5806F02D94FF0FF3010BD0B46821E57
:102CE00021460920FFF7D2FF002010BD054A10B58C
:102CF000126940EA8150024300210820FFF7B7FF24
:102D0000002010BD2805002038B504466B4601227E
:102D10000E212B20FFF736FE9DF8000004F01F0166
:102D200020F01F0001438DF800106B4601220E2198
:102D30002B20FFF7ABFF38BDF0B50022134D052760
:102D400001EB8104134605EB8404002814DD64358F
:102D500055F8216044F82600761C45F82160052EC0
:102D600002D1002045F8210054F82200521CD2B2B2
:102D70000344052AF8D306E054F82200521CD2B2CC
:102D80000344052AF8D393FBF7F0F0BD3803002085
:102D900010B500214254120A42EA03621B0A491C80
:102DA0000429F7DB10BD000070B5094C0546402131
:102DB0002046FEF7D9FCE9B22046FEF77DFD402112
:102DC0002046FEF7E4FC0028F9D0284670BD00003C
:102DD000003801400100094808D0012908D0022923
:102DE00008D0032908D10E21FDF7E2BD0221FBE73F
:102DF0000421F9E70821F7E77047000000080140C7
:102E00000100094808D0012908D0022908D0032967
:102E100008D10E21FDF7CEBD0221FBE70421F9E721
:102E20000821F7E7704700000008014008B50025B9
:102E30002C4600F0FFF9FDF769FED3A0FEF742FD36
:102E400000F068FA00F0C5FA0120FFF7F9FC401C19
:102E50004ED000F0BBFAD148FFF7A4FB0120FFF7EA
:102E6000F0FD48F2B600FFF759FE0020FFF788FE9C
:102E70000021CBA20846FDF7BDFFCCA0FEF722FD46
:102E8000D048CF4ACD49C0E90012D04ACE49C0E966
:102E900002120021C0E90411CD4AC0E90612C0E9BE
:102EA0000811C0E90A11C0E90C11C0E90E11C0E90E
:102EB00010119620FFF721FE40F68C20FFF734FE1C
:102EC0000021C4A20846FDF795FFC6A206210020F6
:102ED000FDF790FFC7A202210020FDF78BFFFEF750
:102EE00093F9AE4EDFF81CB3DFF81C83283E18E0E0
:102EF000C6A0FEF7E7FC0021CAA20846FDF77AFF4C
:102F00000020FEF773F96420FFF7B4FA0020FEF703
:102F100061F96420FFF7AEFAF2E700BFBAF1000FE3
:102F20000CD002215F465846FDF742FD0421384689
:102F3000FDF73EFDFEF776FA4FF0000AFEF71AFAAB
:102F400000285AD1DFF85492012509F179090027A8
:102F5000924989F8027089F80350002279310D20D6
:102F6000FFF7B3FE00210D20FFF7C0FE0220FFF7A0
:102F70000DFE00210F20FFF7EEFC10EA080F706035
:102F8000F7D0B08840042AD54FF4814200210F20A9
:102F9000FFF76DFE00211020FFF7DDFC00F07F0140
:102FA000182904DC874800221838FFF708FD8548F7
:102FB00018388770C178A94216D100917749C77037
:102FC0000A229331FDF7D0F870B974480099273878
:102FD0000122425404215846FDF7ECFC04E0944AD7
:102FE00000210F20FFF743FE6D1CEDB2022DAFD381
:102FF00001256D1CEDB2022DFBD3ECBBFEF7BAF937
:1030000000287CD0654F4FF00009273F012587F845
:103010000090785D012873D19620FFF76EFD40F691
:103020008C20FFF781FD5D4800228630014680F844
:103030000290C5700D20FFF748FE00210D20FFF71C
:1030400055FE0220FFF7A2FD00210F20FFF783FCB1
:1030500010EA080F7060F7D0B088400468D50221EC
:103060005846FDF7A7FC4FF4814200210F20FFF7DF
:10307000FEFD0021102000E023E0FFF76CFC00F0D3
:103080007F01182904DC4F4800221838FFF797FC0D
:103090004C484946183880F80290C278AA424ED16E
:1030A000C17008215846FDF785FC3C4945480A2275
:1030B000A0311838FDF758F810BB641C14F0FF0459
:1030C0005BD043F2BC40FFF72FFD0020FFF78CFCE4
:1030D000474600210F20FFF73EFC38427060F8D0D1
:1030E000B08840043DD54FF4804200210F20FFF707
:1030F000BEFD00211020FFF72EFC40B201E03CE0B5
:103100001DE0B0F5806F05DC81B22E480022183832
:10311000FFF755FC2B48002718382049877090F896
:103120000390C7700A226C31FDF71EF868B124E0E5
:1031300007F805903E4A00210F20FFF798FD6D1C0F
:10314000EDB2022DFFF465AF17E01449273911F8ED
:103150000900012811D101F8097074B1641EE4B2AC
:103160000BE02CB10D48641E00212738E4B2415514
:103170002F4A00210F20FFF77AFDFEF7FBF8002809
:103180007FF4CCAE0024CCE668656C6C6F2064776D
:103190006D31303030210D0A000000003000002079
:1031A000494E49542050415353000000696E6974E0
:1031B0002070617373210D0A00000000B81E85EBBA
:1031C00051B8BE3FC8030020C3F5285C8FC2D53F6D
:1031D0000000D03F2020203531555742204E6F64EB
:1031E0006500000020207777772E35317577622EC5
:1031F000636E00002020204D41535445522054411D
:10320000472000000008014000D0272464776D317A
:1032100030303020696E6974206661696C210D0A56
:1032200000000000494E4954204641494C0000002E
:103230000090272408B501217D20FDF74DFE0121D6
:103240001148FDF789FB01210803FDF745FEFDF755
:10325000F7FAFEF795F8FDF7BBFEFDF741FDFDF728
:1032600021FD00F0B9F8FDF7C1FC25208DF8000024
:1032700000208DF801008DF8020001208DF8030078
:103280006846FDF7CDFC08BD00023000014800682B
:1032900070470000000000202DE9F05F1D46164633
:1032A0008A4607460024FFF7F2F818494FF0100944
:1032B0008346C1F80090DFF858800DE01AF804103A
:1032C000A8F80C1001214046FDF704FF0028F9D0B2
:1032D000B8F80C002870641CBC42EFDB00200246EA
:1032E000414606E08A810B89DB07FCD08B892B5491
:1032F000401CB042F6D30549091FC1F8009058465A
:10330000FFF7C4F80020BDE8F09F0000140801405A
:103310000030014038B51024ADF800408DF803406E
:103320000320104D8DF8020069462846FDF7C2FAC9
:10333000002210212846FDF73FFB6420FFF79AF892
:10334000012210212846FDF737FB6420FFF792F891
:10335000ADF8004000208DF8030069462846FDF7CF
:10336000A9FA38BD000C014010B586B05A248DF87A
:1033700000408DF80100000A8DF80200080A8DF85F
:1033800004008DF8031000208DF8050008218DF849
:1033900006108DF80700102421466846CDE9022367
:1033A000FEF7F5FF8DF8050021466846FEF7D2FFCF
:1033B0008DF81000000A8DF811007F208DF81200A2
:1033C00013216846FEF782F906B010BD0820FDF70C
:1033D000EBBD2020FDF7E8BD1FB54FF4E1300090B4
:1033E0000020ADF80400ADF80600ADF80800ADF817
:1033F0000C000C20ADF80A0069460020FDF798FE8D
:103400000748FEF75FFA0748FEF75CFA0648FEF742
:1034100059FA0648FEF756FA0148FEF753FA1FBD5F
:10342000DC3B0008AC3C0008683C0008243C000879
:103430002DE9F041984615460F4606460024FFF751
:1034400026F80246114810230360114806E0395D52
:1034500081810189C907FCD08189641CB442F6DBF3
:10346000002107E018F8014084810489E407FCD0BA
:103470008489491CA942F5D30448001F0360104603
:10348000FFF704F80020BDE8F081000014080140B7
:103490000030014000020400000408000800800021
:1034A00000010002004000000000020004000000D3
:1034B00004000000040000000400000010000000F0
:1034C000800000008000000080000000010000205B
:1034D000000100200040008008008000040000007F
:1034E00010000000000100000001000000010000C9
:1034F0000001000020000000000100000100002089
:103500000001002000400080080080000000020050
:1035100006000600060006000300060000000D007D
:1035200008000D000E000F00030007000600280031
:1035300017002800280028000900170000000000DC
:10354000000000000000000000000000000000F883
:1035500000000000000000333000000000100C06E6
:10356000100C0600000000000000000040C0784081
:10357000C0784000043F04043F040400007088FC4D
:1035800008300000001820FF211E0000F008F000A5
:10359000E018000000211C031E211E0000F0088816
:1035A000700000001E2123241927211010160E0080
:1035B000000000000000000000000000000000E02B
:1035C0001804020000000007182040000002041840
:1035D000E00000000040201807000000404080F09C
:1035E000804040000202010F01020200000000F0D2
:1035F000000000000101011F0101010000000000A6
:103600000000000080B0700000000000000000001A
:1036100000000000000101010101010100000000A3
:10362000000000000030300000000000000000003A
:1036300080601804006018060100000000E0100817
:103640000810E000000F102020100F00001010F8EC
:10365000000000000020203F20200000007008082B
:1036600008887000003028242221300000300888AB
:10367000884830000018202020110E000000C020D3
:1036800010F8000000070424243F240000F80888F4
:10369000880808000019212020110E0000E0108881
:1036A00088180000000F112020110E0000380808B3
:1036B000C83808000000003F0000000000708808C3
:1036C00008887000001C222121221C0000E0100844
:1036D0000810E0000000312222110F00000000C09D
:1036E000C00000000000003030000000000000803A
:1036F000000000000000806000000000000080402A
:103700002010080000010204081020004040404042
:103710004040400004040404040404000008102095
:1037200040800000002010080402010000704808DA
:103730000808F0000000003036010000C030C82842
:10374000E810E0000718272423140B000000C038FD
:10375000E0000000203C23020227382008F8888877
:1037600088700000203F202020110E00C030080883
:1037700008083800071820202010080008F808085A
:103780000810E000203F202020100F0008F8888853
:10379000E8081000203F20202320180008F888881F
:1037A000E8081000203F200003000000C030080897
:1037B0000838000007182020221E020008F8080020
:1037C0000008F808203F210101213F20000808F8E7
:1037D000080800000020203F20200000000008080A
:1037E000F8080800C08080807F00000008F888C0CA
:1037F00028180800203F20012638200008F808007B
:1038000000000000203F20202020300008F8F800B1
:10381000F8F80800203F003F003F200008F830C0C3
:103820000008F808203F200007183F00E0100808B3
:103830000810E0000F10202020100F0008F80808E2
:103840000808F000203F210101010000E0100808F5
:103850000810E0000F18242438504F0008F888881A
:1038600088887000203F2000030C302000708808FA
:10387000080838000038202121221C00180808F808
:10388000080818000000203F2000000008F8080089
:103890000008F808001F202020201F00087888005A
:1038A00000C83808000007380E010000F80800F8CA
:1038B0000008F800033C0700073C03000818688074
:1038C0008068180820302C03032C30200838C800EA
:1038D000C83808000000203F200000001008080839
:1038E000C83808002038262120201800000000FEDB
:1038F000020202000000007F40404000000C30C087
:1039000000000000000000010638C00000020202B2
:10391000FE000000004040407F0000000000040264
:10392000020204000000000000000000000000008F
:10393000000000008080808080808080000202047F
:103940000000000000000000000000000000808077
:10395000808000000019242222223F2008F80080E5
:1039600080000000003F112020110E0000000080A8
:1039700080800000000E1120202011000000008037
:103980008088F800000E112020103F200000808069
:1039900080800000001F222222221300008080F07D
:1039A000888888180020203F2020000000008080A8
:1039B00080808000006B94949493600008F80080ED
:1039C00080800000203F210000203F200080989848
:1039D000000000000020203F2020000000000080A8
:1039E0009898000000C08080807F000008F80000E8
:1039F00080808000203F24022D302000000808F83D
:103A0000000000000020203F2020000080808080F7
:103A100080808000203F20003F20003F8080008089
:103A200080800000203F210000203F200000808097
:103A300080800000001F202020201F008080008048
:103A40008000000080FFA12020110E0000000080F7
:103A500080808000000E112020A0FF8080808000E8
:103A60008080800020203F21200001000000808015
:103A7000808080000033242424241900008080E00A
:103A8000808000000000001F2020000080800000D7
:103A900000808000001F202020103F2080808000B8
:103AA0000080808000010E300806010080800080C8
:103AB000008080800F300C030C300F0000808000ED
:103AC000808080000020312E0E3120008080800018
:103AD0000080808080818E701806010000808080C8
:103AE000808080000021302C222130000000000066
:103AF000807C020200000000003F40400000000007
:103B0000FF00000000000000FF0000000002027C37
:103B1000800000000040403F00000000000601015E
:103B20000202040400000000000000000000010286
:103B300003040005405C0000A05C0400C06C0800A9
:103B4000805C0400E03F1E00E07D1E0007040009C9
:103B50001E0805400826091040085608054008269A
:103B60001D040008BE1D040008BED8BC07A902251C
:103B700070889B88401008000A00160001000600AB
:103B80000100020087008D002D001A3152001A3307
:103B90009A001A351D011A376B003B31BE003B33CA
:103BA0005E013B3596023B37000099599959EB511C
:103BB0008F421E45142E0080EB51F5283333E13A35
:103BC000703DE13AC235852BC2353333C235C2353B
:103BD000AE47E13A5138A330513800002F2A2A2A43
:103BE0002A2A2A2A2A2A2A2A2A2A2A2A2A2A2A2A35
:103BF0002A2A2A2A2A2A2A2A2A2A2A2A2A2A2A2A25
:103C00002A2A2A2A2A2A2A2A2A2A2A2A2A2A2A2A14
:103C10002A2A2A2A2A2A2A2A2A2A2A2A2A2A2F0A1F
:103C2000000000002F2A2A2A2A2A2A2A2A2A2A2A97
:103C30002A2A2A2A2A2A2A2A2A2A2A2A464D205683
:103C4000657273696F6E2056332E312A2A2A2A2A0A
:103C50002A2A2A2A2A2A2A2A2A2A2A2A2A2A2A2AC4
:103C60002A2A2A2A2A2F0A002F2A2A2A2A2A2A2AF4
:103C70002A2A2A2A2A2A2A2A2A2A2A2A2A2A2A2AA4
:103C800062706865726F2E636F6D2E636E2A2A2ACA
:103C90002A2A2A2A2A2A2A2A2A2A2A2A2A2A2A2A84
:103CA0002A2A2A2A2A2A2A2F0A0000002F2A2A2A08
:103CB0002A2A2A2A2A4D6F726520496E666F726D14
:103CC0006174696F6E20506C65617365205669730D
:103CD0006974204F757220576562736974652A2A6A
:103CE0002A2A2A2A2A2A2A2A2A2A2A2F0A000000CD
:103CF000103D00080000002038030000E407000821
:103D0000583E000838030020300800001C19000845
:103D10000110021F011F02020802090926252104C1
:103D2000418857DE57415645AA790F5A210CBF5694
:103D300045574110021BE22379180215FE791FAA8C
:103D4000E00DAAE10DAAE20DAAE30D2AE4AD3C04C0
:103D50000608D52C0203040445060708097CA24A7C
:103D600004F0691714380140124412401A0808A9D7
:103D7000041A10049A1C046914DA20045A1408293D
:103D800054511BF010012AFF050215F01B0F04010E
:103D90002AFF0502130F18094040405F555555751D
:103DA000041A5F0C091121080C11200F09498979A7
:103DB0000909090F201F112FFE02424ACA4A0304B3
:103DC000134202FE000E14FF40504C4340404F503F
:103DD000505C40FF1BF888012AFF050215F81B1FE5
:103DE00008012A7F200B109F80E23B80820100099E
:103DF00016E2A2928A86828080041840807F17246F
:103E000024A4FEA3221B22CCAA011415080601FF3C
:103E10002B0104010511FF0202025808101010FFC7
:103E2000109008C3021108080F100444827F01801B
:103E30008040432C10284681A012AE100B10408108
:103E4000CFA1C8A6A83FD34010D580D9F1DA12DBA4
:083E50004020028D14A4A6A07D
:0400000508000131BD
:00000001FF
